:100000000C9435000C9425050C9425050C942505BD
:100010000C9425050C9425050C9425050C942505B8
:100020000C9425050C9425050C9425050C942505A8
:100030000C9425050C9425050C9425050C94250598
:100040000C9462040C9425050C9425050C9425054C
:100050000C9425057E028E029E02AE02BE02CE02E6
:10006000DE02EE0200600062800011241FBECFE5B8
:10007000D8E0DEBFCDBFE4E6F0E040E017C0B591C8
:10008000A59135912591059107FD0CC0959185911C
:10009000EF01F92FE82F05900D92A217B307D9F7BA
:1000A000FE0104C01D92A217B307E1F7E936F40779
:0E00B00031F70E9481000C940405F894FFCFF4
:1000BE00476F6F64204C75636B00476F6F64204A07
:1000CE006F6200417765736F6D650049206C6F76C6
:1000DE006520796F750049206C6F766520796F7594
:1000EE0020616C6F7400492073656520796F75000F
:0400FE00596F7500C1
:1001020041E061E083E00E94FE0241E062E083E0C0
:100112000E94FE0241E063E083E00E94FE0240E0B2
:1001220060E080E00E94FE0240E061E080E00E9428
:10013200FE0240E062E080E00E94FE0240E063E0F6
:1001420080E00E94FE0240E064E080E00E94FE0245
:100152000E94AA040E941D050E943A046FEF82E0E9
:100162000E94C30480E00E9474020E940F059C0159
:10017200A8E8B3E10E94E704DC01CB01072E7AE094
:10018200B695A795979587957A95D1F7702DEC013D
:1001920081E00E9474020E940F059C01A8E8B3E16D
:1001A2000E94E704DC01CB01072E7AE0B695A79501
:1001B200979587957A95D1F7702D8C0182E00E94F0
:1001C20074020E940F059C01A8E8B3E10E94E704B3
:1001D200DC01CB01072E7AE0B695A7959795879516
:1001E2007A95D1F7702D7C0183E00E9474020E94FF
:1001F2000F059C01A8E8B3E10E94E704DC01CB01F2
:10020200072E7AE0B695A795979587957A95D1F7B7
:10021200702D6C0184E00E9474020E940F059C0103
:10022200A8E8B3E10E94E704DC01CB01072E7AE0E3
:10023200B695A795979587957A95D1F7702DBC01BC
:10024200C53C29E0D20768F1053C89E0180748F16E
:1002520095ECE91699E0F90620F125ECC21629E0A1
:10026200D206F8F0653C89E07807D8F060E080E0DB
:100272000E94F6040E9421058FE39CE90197F1F7A1
:1002820000C000006EEB70E080E00E9489049FEFE6
:1002920021EE84E0915020408040E1F700C0000050
:1002A20061CFC53C99E0D90758F1053C29E0120716
:1002B20038F585ECE81689E0F80610F595ECC916D4
:1002C20099E0D906E8F4653C29E07207C8F460E0D9
:1002D20080E00E94F6040E94210568EC70E080E054
:1002E2000E94890461E081E00E94F6048FEF91EEA2
:1002F20024E0815090402040E1F700C0000032CF5E
:10030200C53C89E0D80768F5053C99E0190748F132
:1003120025ECE21629E0F20620F585ECC81689E004
:10032200D806F8F4653C99E07907D8F060E080E0FF
:100332000E94F6040E9421058FE39CE90197F1F7E0
:1003420000C0000061ED70E080E00E9489049FEF30
:1003520021EE84E0915020408040E1F700C000008F
:1003620001CFC53C99E0D90768F1053C29E01207A5
:1003720048F185ECE81689E0F80620F595ECC916F7
:1003820099E0D906F8F4653C29E07207D8F060E0FC
:1003920080E00E94F6040E9421058FE39CE9019708
:1003A200F1F700C0000069ED70E080E00E9489046E
:1003B2009FEF21EE84E0915020408040E1F700C0A1
:1003C2000000D0CEC53C99E0D90768F1053C29E090
:1003D200120748F185ECE81689E0F80620F195EC61
:1003E200C91699E0D906F8F4653C29E07207D8F0FD
:1003F20060E080E00E94F6040E9421058FE39CE900
:100402000197F1F700C0000064EE70E080E00E9406
:1004120089049FEF21EE84E0915020408040E1F773
:1004220000C000009FCEC53C99E0D90758F5053CB5
:1004320029E0120738F185ECE81689E0F80610F198
:1004420095ECC91699E0D906E8F4653C29E07207F3
:10045200C8F460E080E00E94F6040E94210564EF87
:1004620070E080E00E94890461E081E00E94F6046D
:100472008FEF91EE24E0815090402040E1F700C0E0
:10048200000070CEC53CD94008F06CCE053C194046
:1004920008F468CE25ECE21629E0F20608F062CEF6
:1004A20085ECC81689E0D80608F05CCE653C794038
:1004B20008F058CE60E080E00E94F6040E94210518
:1004C2006EEF70E080E00E94890461E081E00E94AA
:1004D200F6042FEF81EE94E0215080409040E1F746
:0604E20000C000003FCE47
:1004E80090E08830910508F084C0FC01E65DFF4F7C
:1004F8000C94170587B18E7F87B987B18D7F87B92F
:1005080087B18B7F87B987B1877F87B987B18F7E9E
:1005180087B9089587B1816087B987B18D7F87B919
:1005280087B18B7F87B987B1877F87B987B18F7E7E
:1005380087B9089587B18E7F87B987B1826087B9F7
:1005480087B18B7F87B987B1877F87B987B18F7E5E
:1005580087B9089587B1816087B987B1826087B903
:1005680087B18B7F87B987B1877F87B987B18F7E3E
:1005780087B9089587B18E7F87B987B18D7F87B98D
:1005880087B1846087B987B1877F87B987B18F7E44
:1005980087B9089587B1816087B987B18D7F87B999
:1005A80087B1846087B987B1877F87B987B18F7E24
:1005B80087B9089587B18E7F87B987B1826087B977
:1005C80087B1846087B987B1877F87B987B18F7E04
:1005D80087B9089587B1816087B987B1826087B983
:1005E80087B1846087B987B1877F87B987B18F7EE4
:0405F80087B9089522
:1005FC00843008F072C0683008F06FC04130A1F54B
:10060C00813089F028F08230C9F0833011F10895DF
:10061C002AB381E090E002C0880F991F6A95E2F737
:10062C00822B8ABB089527B381E090E002C0880F2B
:10063C00991F6A95E2F7822B87BB089524B381E05A
:10064C0090E002C0880F991F6A95E2F7822B84BB59
:10065C00089521B381E090E002C0880F991F6A953C
:10066C00E2F7822B81BB0895411137C0813091F0A4
:10067C0028F08230D9F0833029F108952AB381E033
:10068C0090E002C0880F991F6A95E2F7809582234B
:10069C008ABB089527B381E090E002C0880F991FB0
:1006AC006A95E2F78095822387BB089524B381E095
:1006BC0090E002C0880F991F6A95E2F7809582231B
:1006CC0084BB089521B381E090E002C0880F991F8C
:0C06DC006A95E2F78095822381BB0895A7
:1006E800843008F072C0683008F06FC04130A1F55E
:1006F800813089F028F08230C9F0833011F10895F3
:100708002BB381E090E002C0880F991F6A95E2F749
:10071800822B8BBB089528B381E090E002C0880F3C
:10072800991F6A95E2F7822B88BB089525B381E06B
:1007380090E002C0880F991F6A95E2F7822B85BB6B
:10074800089522B381E090E002C0880F991F6A954E
:10075800E2F7822B82BB0895411137C0813091F0B6
:1007680028F08230D9F0833029F108952BB381E045
:1007780090E002C0880F991F6A95E2F7809582235E
:100788008BBB089528B381E090E002C0880F991FC1
:100798006A95E2F78095822388BB089525B381E0A6
:1007A80090E002C0880F991F6A95E2F7809582232E
:1007B80085BB089522B381E090E002C0880F991F9D
:0C07C8006A95E2F78095822382BB0895B9
:1007D400CF93C82F41E061E083E00E94740340E0BE
:1007E40062E083E00E94740341E063E083E00E94DE
:1007F40074038FE19EE40197F1F700C000006C2FB1
:1008040082E00E94D50440E063E083E00E94740328
:100814008FE19EE40197F1F700C00000CF910895A5
:10082400CF93C82F40E061E083E00E94740340E06E
:1008340062E083E00E94740341E063E083E00E948D
:1008440074038FE19EE40197F1F700C000006C2F60
:1008540082E00E94D50440E063E083E00E947403D8
:100864008FE19EE40197F1F700C00000CF91089555
:100874002FE785EB91E0215080409040E1F700C0E4
:10088400000088E30E9412048FE99FE00197F1F7CA
:1008940000C000008CE00E9412048FE99FE00197E1
:1008A400F1F700C0000081E00E9412048FE39FE191
:1008B4000197F1F700C0000086E00E941204089539
:1008C4001F920F920FB60F9211242F933F934F93C1
:1008D4005F936F937F938F939F93AF93BF93EF93A4
:1008E400FF93E0916000F09161000995FF91EF9111
:1008F400BF91AF919F918F917F916F915F914F9134
:0E0904003F912F910F900FBE0F901F901895EE
:10091200CF92DF92EF92CF936B01E82EC0E009C035
:100922000E94EA038FE39CE90197F1F700C00000FF
:10093200CF5FAE2DC6018C0F911DA11DFC018491CC
:10094200A7FD80818111ECCFCF91EF90DF90CF9006
:02095200089506
:1009540087B1806487B987B18F7787B986B18160A1
:1009640086B986B1826086B986B1846086B986B15B
:100974008F7786B986B1877F86B986B1806186B95B
:020984000895D4
:10098600843078F4813041F028F0823039F08330B9
:1009960039F008956ABB089567BB089564BB08954E
:0409A60061BB089594
:1009AA00843078F4813041F028F0823039F0833095
:1009BA0039F008956BBB089568BB089565BB089527
:0409CA0062BB08956F
:1009CE00A29FB001B39FC001A39F700D811D112482
:0E09DE00911DB29F700D811D1124911D089571
:1009EC00811105C080E8860F0E94120408958130A1
:0C09FC0021F480EC860F0E941204089584
:100A0800EC010E942A050E942905CE010E942B05AF
:060A1800CE010E9427053B
:100A1E0086B1806486B9349BFECF84B195B10895BA
:0C0A2E00EE0FFF1F0590F491E02D0994DD
:080A3A0086B1806886B90895B9
:080A420081E00E9412040895F6
:040A4A000C94000008
:040A4E000E945D00A5
:020A5200089505
:020A5400089503
:020A5600089501
:00000001FF
